:100000000C9462000C948A000C948A000C948A0070
:100010000C948A000C948A000C948A000C948A0038
:100020000C948A000C948A000C948A000C948A0028
:100030000C948A000C948A000C948A000C948A0018
:100040000C944E040C948A000C941C040C94F6033B
:100050000C948A000C948A000C948A000C948A00F8
:100060000C948A000C948A000000000024002700F1
:100070002A0000000000250028002B0000000008D6
:10008000000201000003040700000000000000005F
:1000900000000000230026002900040404040404D6
:1000A0000404020202020202030303030303010227
:1000B00004081020408001020408102001020408F6
:1000C0001020010711241FBECFEFD8E0DEBFCDBF47
:1000D00012E0A0E0B1E0E0E4F3E102C005900D928F
:1000E000A831B107D9F723E0A8E1B2E001C01D9221
:1000F000A031B207E1F710E0C2E6D0E004C02197DA
:10010000FE010E942E07C136D107C9F70E94DD0407
:100110000C949E090C940000E3E7F2E0A089B189F9
:1001200082E08C93A485B5851C92A685B7858FEC5B
:100130008C93108EA489B58986E08C93A289B389AB
:100140008C9180618C93A289B3898C9188608C9307
:10015000A289B3898C9180688C930288F389E02D01
:1001600080818F7D80830895CF92DF92EF92FF92FE
:100170000F931F93CF93DF936C017A018B01C0E043
:10018000D0E0CE15DF0589F0D8016D918D01D60143
:10019000ED91FC910190F081E02DC6010995892B2C
:1001A00011F47E0102C02196ECCFC701DF91CF91FF
:1001B0001F910F91FF90EF90DF90CF900895FC0179
:1001C000918D828D981761F0828DDF01A80FB11D8E
:1001D0005D968C91928D9F5F9F73928F90E00895B2
:1001E0008FEF9FEF0895FC01918D828D981731F06C
:1001F000828DE80FF11D858D90E008958FEF9FEFC0
:100200000895FC01918D228D892F90E0805C9F4F95
:10021000821B91098F739927089583E792E00E94CA
:10022000010121E0892B09F420E0822F0895FC01CF
:10023000848DDF01A80FB11DA35ABF4F2C91848D6F
:1002400090E001968F739927848FA689B7892C93A4
:10025000A089B1898C9180648C93938D848D98133F
:1002600006C00288F389E02D80818F7D8083089508
:10027000EF92FF920F931F93CF93DF93EC0181E0F6
:10028000888F9B8D8C8D981305C0E889F9898081B2
:1002900085FD24C0F62E0B8D10E00F5F1F4F0F73EE
:1002A0001127E02E8C8DE8120CC00FB607FCFACF98
:1002B000E889F989808185FFF5CFCE010E94170179
:1002C000F1CF8B8DFE01E80FF11DE35AFF4FF08255
:1002D0000B8FEA89FB898081806207C0EE89FF89E4
:1002E0006083E889F98980818064808381E090E07F
:1002F000DF91CF911F910F91FF90EF900895CF93D1
:10030000DF93EC01888D8823C9F0EA89FB8980811D
:1003100085FD05C0A889B9898C9186FD0FC00FB6EF
:1003200007FCF5CF808185FFF2CFA889B9898C9130
:1003300085FFEDCFCE010E941701E7CFDF91CF916E
:10034000089580E090E0892B29F00E940D01811131
:100350000C940000089590E0FC01E458FF4F3491A4
:10036000FC01E255FF4F2491FC01E656FF4FE4915A
:10037000EE2309F43BC0332339F1333091F038F4E4
:100380003130A9F0323001F584B58F7D12C037309D
:1003900091F03830A1F03430B9F4809180008F7D35
:1003A00003C0809180008F77809380000DC084B55A
:1003B0008F7784BD09C08091B0008F7703C0809192
:1003C000B0008F7D8093B000F0E0EE0FFF1FEE587D
:1003D000FF4FA591B4918FB7F894EC91611103C0D0
:1003E00020952E2301C02E2B2C938FBF0895CF93E1
:1003F000DF9390E0FC01E255FF4F2491FC01E656AB
:10040000FF4F8491882361F190E0880F991FFC01D0
:10041000E859FF4FC591D491FC01EE58FF4FA591CB
:10042000B491611109C09FB7F89488812095822307
:100430008883EC912E230BC0623061F49FB7F8944F
:100440003881822F809583238883EC912E2B2C93E7
:100450009FBF06C08FB7F894E8812E2B28838FBFEB
:10046000DF91CF9108953FB7F89480911D0290914C
:100470001E02A0911F02B091200226B5A89B05C0C4
:100480002F3F19F00196A11DB11D3FBFBA2FA92F13
:10049000982F8827820F911DA11DB11DBC01CD0190
:1004A00042E0660F771F881F991F4A95D1F708957C
:1004B0008F929F92AF92BF92CF92DF92EF92FF9274
:1004C0006B017C010E9433024B015C01C114D10419
:1004D000E104F104F1F00E943302DC01CB01881940
:1004E0009909AA09BB09883E9340A105B10570F39B
:1004F00021E0C21AD108E108F10888EE880E83E0F5
:10050000981EA11CB11CC114D104E104F10419F717
:10051000DDCFFF90EF90DF90CF90BF90AF909F9096
:100520008F9008952FB7F8946091190270911A0274
:1005300080911B0290911C022FBF08950E945308C6
:100540006115710579F0FB0101900020E9F7319701
:10055000AF01461B570BDC01ED91FC910280F3814A
:10056000E02D099480E090E00895CF93DF93BC01E3
:1005700083E792E00E94A002EC016DE271E083E764
:1005800092E00E94A0028C0F9D1FDF91CF910895F1
:100590004F925F926F927F92EF92FF920F931F9311
:1005A000CF93DF93CDB7DEB7A1970FB6F894DEBF38
:1005B0000FBECDBF7C01FA01CB0119A2223008F495
:1005C0002AE08E010F5D1F4F422E512C612C712CA1
:1005D000BF01A30192010E947C09F901CA010150E7
:1005E00011096A3014F4605D01C0695CD8016C9334
:1005F000232B242B252B61F7B801C7010E94A002F1
:10060000A1960FB6F894DEBF0FBECDBFDF91CF919C
:100610001F910F91FF90EF907F906F905F904F90A0
:1006200008954F925F926F927F928F929F92AF92B6
:10063000BF92CF92DF92EF92FF926B017C01B42EBA
:100640009B01AC010E944E08882319F060E171E023
:1006500027C026013701E89477F82FEF3FEF4FE7E7
:100660005FE7C301B2010E944E0881110DC02FEF58
:100670003FEF4FE75FE7C301B2010E945808181629
:100680001CF464E171E00CC02FEF3FEF4FE75FE433
:10069000C701B6010E944908181694F468E171E098
:1006A00083E792E0FF90EF90DF90CF90BF90AF9004
:1006B0009F908F907F906F905F904F900C94A002CE
:1006C0002FEF3FEF4FE75FECC701B6010E945808DC
:1006D00087FDE4CF20E030E0A901C701B6010E9408
:1006E000580887FF11C0E0917302F09174020190E5
:1006F000F081E02D6DE283E792E009954C01F7FA75
:10070000F094F7F8F09402C0812C912CA12C60E0B9
:1007100070E080E09FE3AB1441F020E030E040E285
:1007200051E40E94A107A394F6CF9B01AC01C7013D
:10073000B6010E9435072B013C010E941A086B018B
:100740007C010E945D089B01AC01C301B2010E94C3
:1007500034072B013C012AE0B701A60183E792E0B0
:100760000E94C8027C01E80CF91CBB2041F06CE13E
:1007700071E083E792E00E94A002E80EF91EDB2CF4
:10078000DD2031F120E030E040E251E4C301B2016C
:100790000E94BE082B013C010E941A084B01A12CAB
:1007A000B12C2AE0B501A40183E792E00E94C802BF
:1007B000E80EF91EC501B4010E945D089B01AC0161
:1007C000C301B2010E9434072B013C01DA94D8CF57
:1007D000C701FF90EF90DF90CF90BF90AF909F90B8
:1007E0008F907F906F905F904F9008951F920F921F
:1007F0000FB60F9211242F933F934F935F936F93F4
:100800007F938F939F93AF93BF93EF93FF9383E770
:1008100092E00E941701FF91EF91BF91AF919F91DC
:100820008F917F916F915F914F913F912F910F9099
:100830000FBE0F901F9018951F920F920FB60F9238
:1008400011242F938F939F93EF93FF93E091830253
:10085000F09184028081E0918902F0918A0282FD08
:1008600012C0908180918C028F5F8F7320918D02D6
:10087000821751F0E0918C02F0E0ED58FD4F958F1A
:1008800080938C0201C08081FF91EF919F918F91A5
:100890002F910F900FBE0F901F9018951F920F92DF
:1008A0000FB60F9211242F933F938F939F93AF9383
:1008B000BF938091190290911A02A0911B02B091EE
:1008C0001C023091180223E0230F2D3720F40196EB
:1008D000A11DB11D05C026E8230F0296A11DB11D63
:1008E000209318028093190290931A02A0931B027E
:1008F000B0931C0280911D0290911E02A0911F02D4
:10090000B09120020196A11DB11D80931D0290930C
:100910001E02A0931F02B0932002BF91AF919F913E
:100920008F913F912F910F900FBE0F901F901895B0
:10093000CF92DF92EF92FF920F931F93E82FF92F40
:1009400005C0015011092109310961F190819623F7
:100950009417B9F305C0015011092109310911F1AA
:10096000908196239413F7CFC12CD12CE12CF12C3C
:100970000AC08FEFC81AD80AE80AF80A0C151D0534
:100980002E053F0579F080818623841791F36C2D25
:100990007D2D8E2D9F2D1F910F91FF90EF90DF9059
:1009A000CF90089560E070E080E090E01F910F919B
:1009B000FF90EF90DF90CF900895789484B5826097
:1009C00084BD84B5816084BD85B5826085BD85B5F3
:1009D000816085BD80916E00816080936E00109271
:1009E00081008091810082608093810080918100EC
:1009F000816080938100809180008160809380007D
:100A00008091B10084608093B1008091B0008160DA
:100A10008093B00080917A00846080937A00809106
:100A20007A00826080937A0080917A00816080935E
:100A30007A0080917A00806880937A001092C100D9
:100A400010925402109255021092560210925702C0
:100A50001092220210922302109224021092250278
:100A600060ED77E080E090E00E94580283E792E03A
:100A700090935302809352020E948C000E94920233
:100A8000C0902202D0902302E0902402F090250230
:100A9000DC01CB018C199D09AE09BF098436910593
:100AA000A105B10538F463E070E080E090E00E94B9
:100AB0005802E4CF0E9492026093220270932302B4
:100AC00080932402909325026EE171E0809152029E
:100AD000909153020E94A0026AE070E080E090E0F2
:100AE0000E94580281E0809326020E948C0061E0FF
:100AF0008AE00E94F70160E08DE00E94F70161E06A
:100B00008BE00E94F70160E08BE00E94AB01C3E044
:100B1000D0E0E3E2EE2EF12CFBEBCF2EF0E0DF2E67
:100B2000A7EAAA2EA0E0BA2E60E08AE00E94AB01FC
:100B3000CE010197F1F761E08AE00E94AB01C701A5
:100B40000197F1F760E08AE00E94AB01F601649141
:100B5000F5018491E82FF0E0EE0FFF1FE057FF4F03
:100B60008591949100E412E42FE030E0462F0E943A
:100B70009804611571058105910549F0DC01CB01EF
:100B80000196A11DB11DBC01CD019F7003C060E0A5
:100B900070E0CB010E945D0860936F027093700259
:100BA000809371029093720220E030E040E05FE3B6
:100BB0000E94BE0824E037EE4CE05DE30E94BE08D0
:100BC00060936B0270936C0280936D0290936E023F
:100BD0002091690230916A02F901EE0FFF1FEE0FBA
:100BE000FF1FEF59FD4F608371838283938321152B
:100BF000310549F420917D0230917E0240917F02BF
:100C0000509180020BC0220F331F220F331FF901B6
:100C1000E35AFD4F20813181428153810E94340784
:100C20000E9413082B01770F66087708C301B201F1
:100C30000E945F0825E13EEA46EA51EC0E9458080E
:100C400018160CF46AC061E08BE00E94AB0181E0F1
:100C500080935C020E9492020E945D0860935D0294
:100C600070935E0280935F029093600260E371E094
:100C700083E792E00E94A00260915D0270915E02A3
:100C800080915F029091600242E00E9411036DE248
:100C900071E083E792E00E94A00260E571E083E7E3
:100CA00092E00E94A00277FE14C0E0917302F091DE
:100CB00074020190F081E02D6DE283E792E00995E6
:100CC00044275527BA0144195509660977092AE0CE
:100CD00003C02AE0B301A20183E792E00E94C802A8
:100CE0006DE271E083E792E00E94A0026EE671E09F
:100CF00083E792E00E94A00242E065E17EEA86EA94
:100D000091E40E9411036DE271E083E792E00E949A
:100D1000A0028EE891E00E94B50280915C028823D7
:100D200021F10E9492020E945D0820915D023091A3
:100D30005E0240915F02509160020E94340760930E
:100D400058027093590280935A0290935B0220E0FC
:100D500030E84BE355E40E94490887FD06C060E097
:100D60008BE00E94AB0110925C0240906B025090AD
:100D70006C0260906D0270906E0220E030E048ECF2
:100D800053E4C301B2010E94490887FF0AC020E072
:100D900030E040E050E4C301B2010E945808181648
:100DA0004CF060ED71E083E792E00E94A0028DEDCF
:100DB00091E013C060ED71E083E792E00E94A00231
:100DC00060916B0270916C0280916D0290916E0245
:100DD00042E00E94110383E192E00E94B50264EFB9
:100DE00071E080E090E00E94580280916902909149
:100DF0006A02019690936A02809369020E94A1019F
:100E000093CEE3E7F2E01382128288EE93E0A0E053
:100E1000B0E084839583A683B78384E091E09183D7
:100E2000808385EC90E09587848784EC90E09787B9
:100E3000868780EC90E0918B808B81EC90E0938BA7
:100E4000828B82EC90E0958B848B86EC90E0978B84
:100E5000868B118E128E138E148E0895EE0FFF1F47
:100E60000590F491E02D09945058BB27AA270E94C1
:100E70004C070C9442090E94340938F00E943B0947
:100E800020F039F49F3F19F426F40C9431090EF444
:100E9000E095E7FB0C942B09E92F0E94530958F3C6
:100EA000BA17620773078407950720F079F4A6F54F
:100EB0000C9475090EF4E0950B2EBA2FA02D0B01A2
:100EC000B90190010C01CA01A0011124FF27591B8F
:100ED00099F0593F50F4503E68F11A16F040A22F95
:100EE000232F342F4427585FF3CF46953795279506
:100EF000A795F0405395C9F77EF41F16BA0B620B05
:100F0000730B840BBAF09150A1F0FF0FBB1F661F4B
:100F1000771F881FC2F70EC0BA0F621F731F841F8E
:100F200048F4879577956795B795F7959E3F08F0B4
:100F3000B0CF9395880F08F09927EE0F9795879576
:100F400008950E94B5070C9442090E943B0958F08D
:100F50000E94340940F029F45F3F29F00C942B09DA
:100F600051110C9476090C9431090E94530968F3CD
:100F70009923B1F3552391F3951B550BBB27AA2752
:100F800062177307840738F09F5F5F4F220F331F8C
:100F9000441FAA1FA9F335D00E2E3AF0E0E832D054
:100FA00091505040E695001CCAF72BD0FE2F29D057
:100FB000660F771F881FBB1F261737074807AB0729
:100FC000B0E809F0BB0B802DBF01FF2793585F4F9E
:100FD0003AF09E3F510578F00C942B090C94760959
:100FE0005F3FE4F3983ED4F3869577956795B79580
:100FF000F7959F5FC9F7880F911D9695879597F98B
:101000000895E1E0660F771F881FBB1F6217730703
:101010008407BA0720F0621B730B840BBA0BEE1F18
:1010200088F7E09508950E941A086894B1110C940D
:10103000760908950E945B0988F09F5798F0B92FB0
:101040009927B751B0F0E1F0660F771F881F991FFD
:101050001AF0BA95C9F714C0B13091F00E94750921
:10106000B1E008950C947509672F782F8827B85F31
:1010700039F0B93FCCF3869577956795B395D9F755
:101080003EF490958095709561957F4F8F4F9F4F5F
:1010900008950E949A0808F48FEF08950E949A0814
:1010A000880B990B089581E090E0F8940C949E09C8
:1010B0000E949A0808F481E00895E89409C097FB1B
:1010C0003EF490958095709561957F4F8F4F9F4F1F
:1010D0009923A9F0F92F96E9BB279395F695879563
:1010E00077956795B795F111F8CFFAF4BB0F11F426
:1010F00060FF1BC06F5F7F4F8F4F9F4F16C08823CD
:1011000011F096E911C0772321F09EE8872F762F02
:1011100005C0662371F096E8862F70E060E02AF043
:101120009A95660F771F881FDAF7880F969587952F
:1011300097F90895990F0008550FAA0BE0E8FEEF04
:1011400016161706E807F907C0F012161306E4078B
:10115000F50798F0621B730B840B950B39F40A2684
:1011600061F0232B242B252B21F408950A2609F462
:10117000A140A6958FEF811D811D08950E94D10881
:101180000C9442090E94340938F00E943B0920F077
:10119000952311F00C942B090C94310911240C9413
:1011A00076090E94530970F3959FC1F3950F50E0A3
:1011B000551F629FF001729FBB27F00DB11D639F09
:1011C000AA27F00DB11DAA1F649F6627B00DA11DAF
:1011D000661F829F2227B00DA11D621F739FB00D55
:1011E000A11D621F839FA00D611D221F749F3327C5
:1011F000A00D611D231F849F600D211D822F762F5E
:101200006A2F11249F5750409AF0F1F088234AF03A
:10121000EE0FFF1FBB1F661F771F881F91505040A6
:10122000A9F79E3F510580F00C942B090C94760988
:101230005F3FE4F3983ED4F3869577956795B7952D
:10124000F795E7959F5FC1F7FE2B880F911D969547
:10125000879597F9089597F99F6780E870E060E0B7
:1012600008959FEF80EC089500240A94161617063F
:1012700018060906089500240A9412161306140687
:1012800005060895092E0394000C11F4882352F0EA
:10129000BB0F40F4BF2B11F460FF04C06F5F7F4FA2
:1012A0008F4F9F4F089557FD9058440F551F59F089
:1012B0005F3F71F04795880F97FB991F61F09F3F43
:1012C00079F087950895121613061406551FF2CF6C
:1012D0004695F1DF08C0161617061806991FF1CFBC
:1012E00086957105610508940895E894BB276627E3
:1012F0007727CB0197F90895A1E21A2EAA1BBB1BF1
:10130000FD010DC0AA1FBB1FEE1FFF1FA217B307D1
:10131000E407F50720F0A21BB30BE40BF50B661FE7
:10132000771F881F991F1A9469F7609570958095AB
:1013300090959B01AC01BD01CF010895F894FFCFBA
:10134000000000003801B4000101DF00F3007F015C
:101350006E616E00696E66006F7666002E00564DF7
:101360004450565F317C315F564D4450560D0A0053
:10137000456C2076616C6F72206465206D696C69C4
:1013800073496E6963696F416C61726D613A2000E7
:101390004469666572656E63696120656E74726525
:1013A0002064697374616E636961733A2000456CEF
:1013B0002076616C6F722065732073757065726939
:1013C0006F72206F20696775616C206120002A2A86
:1013D0002A2A2A2A2A2A2A2A2A2A2A2A2A2A2A2A6D
:1013E0002A2A2A2A204F626A65746F206163657217
:1013F00063C3A16E646F7365202A2A2A2A2A2A2AC7
:101400002A2A2A2A2A2A2A2A2A2A2A2A2A2A2A0066
:1014100044697374616E636961203D2000456C20EE
:101420006F626A65746F20657374C3A1206DC3A178
:1014300073206365726361206465203220636D20D0
:101440006F206DC3A173206C656A6F732064652083
:0814500034303020636D000010
:00000001FF
