:100000000C9462000C948A000C948A000C948A0070
:100010000C948A000C948A000C948A000C948A0038
:100020000C948A000C948A000C948A000C948A0028
:100030000C948A000C948A000C948A000C948A0018
:100040000C94CA030C948A000C9498030C947203C9
:100050000C948A000C948A000C948A000C948A00F8
:100060000C948A000C948A000000000024002700F1
:100070002A0000000000250028002B0000000008D6
:10008000000201000003040700000000000000005F
:1000900000000000230026002900040404040404D6
:1000A0000404020202020202030303030303010227
:1000B00004081020408001020408102001020408F6
:1000C00010206A0611241FBECFEFD8E0DEBFCDBFDF
:1000D00012E0A0E0B1E0E2E1F2E102C005900D9291
:1000E000A630B107D9F722E0A6E0B2E001C01D9228
:1000F000A73CB207E1F710E0C2E6D0E004C02197C8
:10010000FE010E94B906C136D107C9F70E94590401
:100110000C9407090C940000E0912A02F0912B0244
:100120000190F081E02D682F8AE292E00994CF924D
:10013000DF92EF92FF920F931F93CF93DF936C01A7
:100140007A018B01C0E0D0E0CE15DF0589F0D8013F
:100150006D918D01D601ED91FC910190F081E02D22
:10016000C6010995892B11F47E0102C02196ECCFBE
:10017000C701DF91CF911F910F91FF90EF90DF901A
:10018000CF900895FC01918D828D981761F0828D3A
:10019000DF01A80FB11D5D968C91928D9F5F9F73BB
:1001A000928F90E008958FEF9FEF0895FC01918D5D
:1001B000828D981731F0828DE80FF11D858D90E0CA
:1001C00008958FEF9FEF0895FC01918D228D892F67
:1001D00090E0805C9F4F821B91098F73992708954F
:1001E0008AE292E00E94E40021E0892B09F420E0F9
:1001F000822F0895FC01848DDF01A80FB11DA35A41
:10020000BF4F2C91848D90E001968F739927848F36
:10021000A689B7892C93A089B1898C9180648C932D
:10022000938D848D981306C00288F389E02D808118
:100230008F7D80830895EF92FF920F931F93CF934A
:10024000DF93EC0181E0888F9B8D8C8D981305C026
:10025000E889F989808185FD24C0F62E0B8D10E098
:100260000F5F1F4F0F731127E02E8C8DE8120CC00B
:100270000FB607FCFACFE889F989808185FFF5CFB1
:10028000CE010E94FA00F1CF8B8DFE01E80FF11D27
:10029000E35AFF4FF0820B8FEA89FB8980818062ED
:1002A00007C0EE89FF896083E889F98980818064CD
:1002B000808381E090E0DF91CF911F910F91FF90BB
:1002C000EF900895CF93DF93EC01888D8823C9F0D8
:1002D000EA89FB89808185FD05C0A889B9898C914F
:1002E00086FD0FC00FB607FCF5CF808185FFF2CFEA
:1002F000A889B9898C9185FFEDCFCE010E94FA00C3
:10030000E7CFDF91CF91089580E090E0892B29F02D
:100310000E94F00081110C940000089590E0FC010F
:10032000E458FF4F3491FC01E255FF4F2491FC014A
:10033000E656FF4FE491EE2309F43BC0332339F135
:10034000333091F038F43130A9F0323001F584B512
:100350008F7D12C0373091F03830A1F03430B9F4CD
:10036000809180008F7D03C0809180008F77809383
:1003700080000DC084B58F7784BD09C08091B00026
:100380008F7703C08091B0008F7D8093B000F0E044
:10039000EE0FFF1FEE58FF4FA591B4918FB7F89461
:1003A000EC91611103C020952E2301C02E2B2C93BC
:1003B0008FBF0895CF93DF9390E0FC01E255FF4F8C
:1003C0002491FC01E656FF4F8491882361F190E06F
:1003D000880F991FFC01E859FF4FC591D491FC018A
:1003E000EE58FF4FA591B491611109C09FB7F894E1
:1003F0008881209582238883EC912E230BC0623064
:1004000061F49FB7F8943881822F80958323888385
:10041000EC912E2B2C939FBF06C08FB7F894E881E8
:100420002E2B28838FBFDF91CF9108953FB7F8948B
:100430008091070290910802A0910902B0910A02EE
:1004400026B5A89B05C02F3F19F00196A11DB11D2F
:100450003FBFBA2FA92F982F8827820F911DA11D6A
:10046000B11DBC01CD0142E0660F771F881F991FA7
:100470004A95D1F70895009769F0FC01019000209A
:10048000E9F73197AF01481B590BBC018AE292E0B2
:100490000C94970080E090E00895CF93DF930E9442
:1004A0003B02EC0180E191E00E943B028C0F9D1F1A
:1004B000DF91CF9108958F929F92AF92BF920F9349
:1004C0001F93CF93DF93CDB7DEB7A1970FB6F89404
:1004D000DEBF0FBECDBF19A2423008F44AE08E0144
:1004E0000F5D1F4F842E912CA12CB12CA5019401DE
:1004F0000E949706E62FB901CA0101501109EA309E
:1005000014F4E05D01C0E95CD801EC93232B242BAB
:10051000252B61F7C8010E943B02A1960FB6F89403
:10052000DEBF0FBECDBFDF91CF911F910F91BF9066
:10053000AF909F908F9008954F925F926F927F92AD
:100540008F929F92AF92BF92CF92DF92EF92FF92E3
:100550006B017C01B42E9B01AC010E94FD08882335
:1005600019F083E191E027C026013701E89477F87C
:100570002FEF3FEF4FE75FE7C301B2010E94FD0895
:1005800081110DC02FEF3FEF4FE75FE7C301B201CD
:100590000E942C0718161CF487E191E00CC02FEF85
:1005A0003FEF4FE75FE4C701B6010E948B081816C2
:1005B00084F48BE191E0FF90EF90DF90CF90BF90BB
:1005C000AF909F908F907F906F905F904F900C9422
:1005D0003B022FEF3FEF4FE75FECC701B6010E94F0
:1005E0002C0787FDE6CF20E030E0A901C701B60166
:1005F0000E942C0787FF09C08DE20E948C004C01ED
:10060000F7FAF094F7F8F09402C0812C912CA12C09
:1006100060E070E080E09FE3AB1441F020E030E068
:1006200040E251E40E943107A394F6CF9B01AC0154
:10063000C701B6010E94C0062B013C010E94AA0717
:100640006B017C010E94D9079B01AC01C301B2017F
:100650000E94BF062B013C014AE0C701B6010E947F
:100660005B027C01E80CF91CBB2029F08EE20E94A1
:100670008C00E80EF91EDB2CDD2021F120E030E0BB
:1006800040E251E4C301B2010E9490082B013C01F9
:100690000E94AA074B01A12CB12C4AE0C501B4016C
:1006A0000E945B02E80EF91EC501B4010E94D90741
:1006B0009B01AC01C301B2010E94BF062B013C01AA
:1006C000DA94DACFC701FF90EF90DF90CF90BF9020
:1006D000AF909F908F907F906F905F904F90089514
:1006E0000E9402091F920F920FB60F9211242F93AE
:1006F0003F934F935F936F937F938F939F93AF93AA
:10070000BF93EF93FF938AE292E00E94FA00FF9179
:10071000EF91BF91AF919F918F917F916F915F9179
:100720004F913F912F910F900FBE0F901F901895F2
:100730001F920F920FB60F9211242F938F939F93B6
:10074000EF93FF93E0913A02F0913B028081E091B8
:100750004002F091410282FD12C0908180914302DB
:100760008F5F8F7320914402821751F0E091430212
:10077000F0E0E65DFD4F958F8093430201C08081DC
:10078000FF91EF919F918F912F910F900FBE0F903E
:100790001F9018951F920F920FB60F9211242F934E
:1007A0003F938F939F93AF93BF9380910B02909150
:1007B0000C02A0910D02B0910E023091060223E0CE
:1007C000230F2D3720F40196A11DB11D05C026E889
:1007D000230F0296A11DB11D2093060280930B02E8
:1007E00090930C02A0930D02B0930E028091070229
:1007F00090910802A0910902B0910A020196A11DF0
:10080000B11D8093070290930802A0930902B09350
:100810000A02BF91AF919F918F913F912F910F90BD
:100820000FBE0F901F901895CF92DF92EF92FF921C
:100830000F931F93E82FF92F05C0015011092109CB
:10084000310961F1908196239417B9F305C00150E5
:1008500011092109310911F1908196239413F7CFE1
:10086000C12CD12CE12CF12C0AC08FEFC81AD80A68
:10087000E80AF80A0C151D052E053F0579F0808160
:100880008623841791F36C2D7D2D8E2D9F2D1F9126
:100890000F91FF90EF90DF90CF90089560E070E0AF
:1008A00080E090E01F910F91FF90EF90DF90CF904C
:1008B0000895789484B5826084BD84B5816084BDD8
:1008C00085B5826085BD85B5816085BD80916E00EE
:1008D000816080936E00109281008091810082601F
:1008E000809381008091810081608093810080915C
:1008F00080008160809380008091B100846080934B
:10090000B1008091B00081608093B00080917A0046
:10091000846080937A0080917A00826080937A006C
:1009200080917A00816080937A0080917A0080685B
:1009300080937A001092C100E0913A02F0913B025C
:1009400082E08083E0913602F09137021082E091DC
:100950003802F09139028FEC808310924202E091CC
:100960003E02F0913F0286E08083E0913C02F091EC
:100970003D02808180618083E0913C02F0913D02E4
:10098000808188608083E0913C02F0913D0280810B
:1009900080688083E0913C02F0913D0280818F7DF0
:1009A000808361E08AE00E94DA0160E08DE00E94CD
:1009B000DA0161E088E00E94DA0160E088E00E94EC
:1009C0008E01C3E0D0E0E3E2EE2EF12CFBEBCF2E64
:1009D000F0E0DF2EA7EA2A2EA0E03A2E60E08AE0BF
:1009E0000E948E01CE010197F1F761E08AE00E943A
:1009F0008E01C7010197F1F760E08AE00E948E0145
:100A0000F6016491F1018491E82FF0E0EE0FFF1FF1
:100A1000E057FF4F8591949100E412E42FE030E01D
:100A2000462F0E941404611571058105910549F056
:100A3000DC01CB010196A11DB11DBC01CD019F7050
:100A400003C060E070E0CB010E94D90760932602EA
:100A500070932702809328029093290220E030E0CF
:100A600040E05FE30E94900824E037EE4CE05DE355
:100A70000E949008609322027093230280932402C4
:100A8000909325022091200230912102F901EE0F6E
:100A9000FF1FEE0FFF1FE85EFD4F608371838283AF
:100AA00093832115310549F42091340230913502A8
:100AB00040913602509137020BC0220F331F220F94
:100AC000331FF901EC5EFD4F20813181428153815A
:100AD0000E94BF060E94A3072B01770F66087708C4
:100AE000C301B2010E94DB0725E13EEA46EA51EC70
:100AF0000E942C0718160CF45DC061E088E00E948B
:100B00008E0181E0809313022FB7F89460910B025D
:100B100070910C0280910D0290910E022FBF0E94E5
:100B2000D907609314027093150280931602909374
:100B300017028FE191E00E943B02609114027091D4
:100B40001502809116029091170242E00E949C02C9
:100B500080E191E00E943B028FE391E00E943B0222
:100B600077FE0CC08DE20E948C0066277727CB01B0
:100B700064197509860997094AE003C04AE0C30170
:100B8000B2010E945B0280E191E00E943B028DE590
:100B900091E00E943B0242E065E17EEA86EA91E450
:100BA0000E949C0280E191E00E943B028DE791E06F
:100BB0000E944D0280911302882369F12FB7F894A7
:100BC00060910B0270910C0280910D0290910E02C7
:100BD0002FBF0E94D9072091140230911502409135
:100BE0001602509117020E94BF0660930F02709385
:100BF0001002809311029093120220E030E84BE340
:100C000055E40E948B0887FD06C060E088E00E94E2
:100C10008E01109213028FEB91E00E943B024090F4
:100C2000220250902302609024027090250220E05E
:100C300030E048EC53E4C301B2010E948B0887FF07
:100C40000AC020E030E040E050E4C301B2010E945D
:100C50002C0718161CF08CEC91E007C042E0C30191
:100C6000B2010E949C0282E092E00E944D020E942A
:100C700016024B015C0184EF482E55245394612CDD
:100C8000712C0E941602DC01CB0188199909AA096E
:100C9000BB09883E9340A105B10558F0F1E04F1A19
:100CA00051086108710828EE820E23E0921EA11CF3
:100CB000B11C411451046104710419F780912002A0
:100CC00090912102019690932102809320020E942C
:100CD000840184CEEAE2F2E01382128288EE93E08D
:100CE000A0E0B0E084839583A683B78384E091E09D
:100CF0009183808385EC90E09587848784EC90E0F5
:100D00009787868780EC90E0918B808B81EC90E0D8
:100D1000938B828B82EC90E0958B848B86EC90E0B9
:100D2000978B868B118E128E138E148E0895A1E2EE
:100D30001A2EAA1BBB1BFD010DC0AA1FBB1FEE1F55
:100D4000FF1FA217B307E407F50720F0A21BB30BA0
:100D5000E40BF50B661F771F881F991F1A9469F71C
:100D600060957095809590959B01AC01BD01CF0178
:100D70000895EE0FFF1F0590F491E02D099450584F
:100D8000BB27AA270E94D7060C9451080E9443084B
:100D900038F00E944A0820F039F49F3F19F426F4F5
:100DA0000C9440080EF4E095E7FB0C943A08E92F08
:100DB0000E94620858F3BA17620773078407950701
:100DC00020F079F4A6F50C9484080EF4E0950B2E2F
:100DD000BA2FA02D0B01B90190010C01CA01A0018D
:100DE0001124FF27591B99F0593F50F4503E68F1E8
:100DF0001A16F040A22F232F342F4427585FF3CF29
:100E0000469537952795A795F0405395C9F77EF4F9
:100E10001F16BA0B620B730B840BBAF09150A1F042
:100E2000FF0FBB1F661F771F881FC2F70EC0BA0FC8
:100E3000621F731F841F48F4879577956795B79550
:100E4000F7959E3F08F0B0CF9395880F08F099274B
:100E5000EE0F9795879508950E94160808F481E093
:100E600008950E9445070C9451080E944A0858F0C2
:100E70000E94430840F029F45F3F29F00C943A089F
:100E800051110C9485080C9440080E94620868F384
:100E90009923B1F3552391F3951B550BBB27AA2733
:100EA00062177307840738F09F5F5F4F220F331F6D
:100EB000441FAA1FA9F335D00E2E3AF0E0E832D035
:100EC00091505040E695001CCAF72BD0FE2F29D038
:100ED000660F771F881FBB1F261737074807AB070A
:100EE000B0E809F0BB0B802DBF01FF2793585F4F7F
:100EF0003AF09E3F510578F00C943A080C9485081E
:100F00005F3FE4F3983ED4F3869577956795B79560
:100F1000F7959F5FC9F7880F911D9695879597F96B
:100F20000895E1E0660F771F881FBB1F62177307E4
:100F30008407BA0720F0621B730B840BBA0BEE1FF9
:100F400088F7E09508950E94AA076894B1110C945F
:100F5000850808950E946A0888F09F5798F0B92F75
:100F60009927B751B0F0E1F0660F771F881F991FDE
:100F70001AF0BA95C9F714C0B13091F00E948408F4
:100F8000B1E008950C948408672F782F8827B85F04
:100F900039F0B93FCCF3869577956795B395D9F736
:100FA0003EF490958095709561957F4F8F4F9F4F40
:100FB0000895E89409C097FB3EF49095809570954C
:100FC00061957F4F8F4F9F4F9923A9F0F92F96E995
:100FD000BB279395F695879577956795B795F1110A
:100FE000F8CFFAF4BB0F11F460FF1BC06F5F7F4FA7
:100FF0008F4F9F4F16C0882311F096E911C07723B9
:1010000021F09EE8872F762F05C0662371F096E8C1
:10101000862F70E060E02AF09A95660F771F881F90
:10102000DAF7880F9695879597F90895990F000834
:10103000550FAA0BE0E8FEEF16161706E807F907AA
:10104000C0F012161306E407F50798F0621B730B45
:10105000840B950B39F40A2661F0232B242B252BC6
:1010600021F408950A2609F4A140A6958FEF811D69
:10107000811D089597F99F6780E870E060E008950A
:101080009FEF80EC089500240A94161617061806A0
:101090000906089500240A9412161306140605067C
:1010A0000895092E0394000C11F4882352F0BB0F0D
:1010B00040F4BF2B11F460FF04C06F5F7F4F8F4F70
:1010C0009F4F089557FD9058440F551F59F05F3FAB
:1010D00071F04795880F97FB991F61F09F3F79F05A
:1010E00087950895121613061406551FF2CF4695DC
:1010F000F1DF08C0161617061806991FF1CF86955E
:101100007105610508940895E894BB276627772741
:10111000CB0197F908950E94160808F48FEF0895FF
:101120000E94A3080C9451080E94430838F00E94C2
:101130004A0820F0952311F00C943A080C944008CA
:1011400011240C9485080E94620870F3959FC1F3E6
:10115000950F50E0551F629FF001729FBB27F00D65
:10116000B11D639FAA27F00DB11DAA1F649F6627BA
:10117000B00DA11D661F829F2227B00DA11D621F09
:10118000739FB00DA11D621F839FA00D611D221FC3
:10119000749F3327A00D611D231F849F600D211DA7
:1011A000822F762F6A2F11249F5750409AF0F1F02A
:1011B00088234AF0EE0FFF1FBB1F661F771F881F93
:1011C00091505040A9F79E3F510580F00C943A0889
:1011D0000C9485085F3FE4F3983ED4F386957795A9
:1011E0006795B795F795E7959F5FC1F7FE2B880F39
:1011F000911D9695879597F908950E941608880B7A
:10120000990B089581E090E0F8940C940709F89404
:02121000FFCF0E
:10121200000000001B019700E400C200D60062013A
:101222000D0A006E616E00696E66006F766600459B
:101232006C2076616C6F72206465206D696C6973D5
:10124200496E6963696F416C61726D613A20004455
:1012520069666572656E63696120656E7472652088
:1012620064697374616E636961733A2000456C202E
:1012720076616C6F72206573207375706572696F29
:1012820072206F20696775616C206120002A2A2A0A
:101292002A2A2A2A2A2A2A2A2A2A2A2A2A2A2A2AAC
:1012A2002A2A2A204F626A65746F2061636572631D
:1012B200C3A16E646F7365202A2A2A2A2A2A2A2A3F
:1012C2002A2A2A2A2A2A2A2A2A2A2A2A2A2A00448C
:1012D200697374616E636961203D2000456C206F03
:1012E200626A65746F20657374C3A1206DC3A173B4
:1012F200206365726361206465203220636D206F14
:10130200206DC3A173206C656A6F732064652034FD
:06131200303020636D0085
:00000001FF
